:020000040800F2
:1000000078040020D901000827230008BD14000847
:1000100025230008E5020008E12300080000000095
:100020000000000000000000000000002B2300087A
:10003000E702000800000000292300082D23000823
:10004000F3010008F3010008F3010008F3010008C0
:10005000F3010008F3010008E9020008EF020008BC
:10006000F3010008F3010008F3010008F3010008A0
:10007000F3010008F3010008F3010008F301000890
:10008000F3010008F3010008F3010008F301000880
:10009000F3010008F3010008F3010008F301000870
:1000A000F3010008F3010008F3010008F301000860
:1000B000F3010008F3010008F3010008CD14000863
:1000C000C1140008F3010008F3010008F30100085F
:1000D000F3010008F3010008F3010008F301000830
:1000E000F3010008F3010008F3010008F301000820
:1000F000F3010008F3010008F3010008F301000810
:10010000F3010008F3010008F3010008F3010008FF
:10011000F3010008F3010008F3010008F3010008EF
:10012000F3010008F3010008F3010008F3010008DF
:10013000F30100080000000000000000F3010008C7
:10014000F3010008F3010008F3010008F3010008BF
:10015000F3010008F3010008F3010008F3010008AF
:10016000F3010008F3010008F3010008F30100089F
:10017000F3010008F3010008F3010008000000008B
:1001800000000000F3010008000000000000000073
:10019000F30100080000000000000000F301000867
:1001A000000000000000000000000000F301000853
:1001B000F3010008F3010008F3010008F30100084F
:1001C000F3010008DFF80CD000F07AF8004800478F
:1001D000FD250008780400200648804706480047AF
:1001E000FEE7FEE7FEE7FEE7FEE7FEE7FEE7FEE7E7
:1001F000FEE7FEE7D1230008C50100082DE9F05F06
:100200000546002092469B46884606468146402485
:100210001BE0284641464746224600F041F8534637
:100220005A46C01A914110D311461846224600F092
:1002300028F82D1A67EB01084F46224601200021BD
:1002400000F01FF817EB00094E41201EA4F1010435
:10025000DFDC484631462A464346BDE8F09FD2B22D
:1002600001E000F8012B491EFBD270470022F6E79F
:1002700010B513460A4604461946FFF7F0FF20461C
:1002800010BD202A04DB203A00FA02F1002070475A
:100290009140C2F1200320FA03F3194390407047C4
:1002A000202A04DB203A21FA02F00021704721FACB
:1002B00002F3D040C2F12002914008431946704732
:1002C000064C074D06E0E06840F0010394E80700A3
:1002D00098471034AC42F6D3FFF778FF3427000874
:1002E00054270008FEE77047012000F02FB80220D5
:1002F00000F02CB872B6FEE790F83510022903D052
:100300008021416501207047052180F83510006883
:10031000016821F0010101600020704790F835006C
:100320007047000070B5044600F010F90546601CE7
:1003300002D004480078044400F008F9401BA042B1
:10034000FAD370BD0800002070470000044910B5C2
:100350000A68024202D00860FFF7F6FF10BD0000F5
:10036000143C01402DE9F84FDFF8ACA10022012434
:100370000AF1040B03254FF00F090BF1040E00BF27
:100380000B6804FA02F63340B3426ED10F7907F0DE
:100390000307012F01D0022F16D187684FEA4208C8
:1003A00005FA08FC27EA0C07D1F80CC00CFA08FC87
:1003B0004CEA070CC0F808C04768B7430E79C6F38B
:1003C000001696403E4346600E79F643B6070AD0C3
:1003D000C6684FEA420C05FA0CF7BE438F6807FA6D
:1003E0000CF73743C7600E7906F00306022E10D1D2
:1003F000D60800EB8608D8F8206057074FEAD76C7C
:1004000009FA0CF7BE430F6907FA0CF73743C8F82F
:10041000207006684FEA420C05FA0CF7BE430F79CC
:1004200007F0030707FA0CF7374307604E6816F426
:10043000403F6BD0394E376847F4804737603668A5
:1004400022F0030706F480460096354E07EB060CB3
:10045000DCF8086897074FEA177809FA08F7BE43EF
:10046000304FB84202D100271FE04FE02E4FB84274
:1004700001D1012719E02D4FB84201D1022714E024
:100480002B4FB84201D103270FE02A4FB84201D1C8
:1004900004270AE0284FB84201D1052705E0274F7D
:1004A000B84201D1062700E0072707FA08F73743CB
:1004B000CCF80878DAF800605746D1F804C09E43BB
:1004C0005FEACC3C00D51E433E60DBF800605F462F
:1004D000D1F804C09E435FEA8C3C00D51E433E60C9
:1004E000DEF800607746D1F804C09E435FEACC2C6A
:1004F00000D51E433E60084F0C373E68D1F804C05B
:100500009E435FEA8C2C00D51E433E60521C102A8D
:10051000FFF436AFBDE8F88F003C0140443802409C
:100520000030014000000240000402400008024088
:10053000000C02400010024000140240001802406B
:100540000AB1816170470904FBE700000148806837
:100550007047000008000020704770472DE9F04107
:10056000016804464A694E6890F83E000025D7436A
:10057000FA0506D4F243D20503D46FF48072012544
:100580004A61B90508D4F143C90505D422686FF45E
:10059000007145F002055161790525D4F143C90583
:1005A00022D4638D94F83D10226B202808D13BB9EA
:1005B000212910D029290ED0282901D1212A0AD099
:1005C00022686FF48061516145F00405102806D05F
:1005D000402804D008E0204601F032FC04E0206806
:1005E000016841F400710160380508D4F043C0058A
:1005F00005D421686FF4006045F008054861002DBE
:1006000007D0206C284320642046BDE8F04100F06C
:10061000C1BFBDE8F0812DE9F047026800215368B1
:10062000C66A90F83E4090F83D50102C12D0402CF5
:1006300010D0046C002C7DD05469E443A6077AD412
:10064000DE43B60577D4036C03B19169BDE8F0478A
:1006500001F0D2BB976951694FF42A0CC9435FEA94
:10066000C1784FF02A4904D066452AD04E4528D09B
:1006700010E0DE43B6050DD4C16A614501D1012108
:1006800003E0C16A494501D10821C162BDE8F047D4
:1006900001F04ABA0E0716D4DE43B60513D4416CF6
:1006A000C9B21161416B09B1C96B29B9816B0029CC
:1006B00007D0C96B002904D00068416841F400618B
:1006C0004160BDE8F0878E0706D4DE43B60503D44B
:1006D000BDE8F04701F09CB9FE43526876074FEA47
:1006E00002521DD4002AECDB0A0608D4DA43520574
:1006F00005D4490705D5BDE8F04701F02DB94907F4
:10070000DFD4D9438905DCD4212D05D0402CD8D1A4
:10071000BDE8F04701F04EBABDE8F04701F0DAB8A5
:10072000002ACEDB4A060BD4DA43520508D4490727
:1007300008D501E00DE00EE0BDE8F04701F056B845
:100740004907BED4D9438905BBD4BDE8F04700F0C2
:10075000E4BF916970E7E10606D4D943890503D463
:10076000BDE8F04701F0AEBB2821212D27D0292D6F
:1007700025D0650655D4DD436D0552D4640752D5A6
:1007800090F83D30448D002C9BD01269446A227051
:10079000426A521C4262428D521E4285428D002A9C
:1007A0008FD12A2B8DD10268536823F48063536064
:1007B0002222026380F83D1000F0EAFA81E7250664
:1007C00023D4DD436D0520D4640720D590F83D3057
:1007D000448D002CF2D0446A24781461426A521C81
:1007E0004262428D521E4285428D002AE6D1292B5B
:1007F000E4D10268536823F48063536021220263CA
:1008000080F83D1000F0C5FA5BE76107D6D4D94304
:100810008905D3D4418D0029D0D0416A097811616E
:100820000AE06107CAD4D9438905C7D4418D00299C
:10083000C4D01169426A1170416A491C4162418DFC
:10084000491E41853DE7704770B5040025D094F8F6
:100850003D00002520B984F83C50204600F052FAB3
:10086000242084F83D002068016821F00101016026
:100870002068016841F4004101602068016821F4AA
:100880000041016000F0F2FB4D4A6168914201D8DD
:100890004C4900E04C49884201D2012070BD4B49CF
:1008A0002368B0FBF1F15E6826F03F060E435E6000
:1008B0006368934206D94FF4967359434FF47A73A1
:1008C000B1FBF3F12368491C1E6A26F03F06314351
:1008D00019626168914210D84900401EB0FBF1F2E4
:1008E000521CC2F30B02042A01D2042022E0B0FB06
:1008F000F1F0401CC0F30B001CE0A268F2B301EB66
:10090000C10303EB0116431EB3FBF6F35B1C43F478
:1009100080431B0549D092B301EBC10202EB0111E8
:10092000401EB0FBF1F0401CC0F30B0040F48040CF
:1009300040F400402168CA694CF6FF739A431043A3
:10094000C861D4E9071001432068026822F0C002A0
:1009500011430160D4E9030101432068826848F231
:10096000FF339A4311438160D4E9050108432168AC
:10097000CA6822F0FF021043C86001E00EE016E0F2
:100980002068016841F0010101602564202084F89D
:100990003D00256384F83E50002070BD01EB410608
:1009A000431EB3FBF6F35B1CB3E70120C2E701EB88
:1009B0004101401EB0FBF1F0401CC0F30B00B7E753
:1009C000A086010080841E0000093D0040420F0007
:1009D0007047704770477047704700002DE9FF4F20
:1009E00083B09A46DDE9119793460446DDF84080CE
:1009F000FFF7ACFD054694F83D00202870D119237F
:100A0000012271492046009501F030FB0028F5D104
:100A100094F83C00012863D0012084F83C00206851
:100A20000168C90703D1016841F001010160206834
:100A3000016821F400610160222084F83D0040201B
:100A400084F83E0000262664C4F82480A4F82A9086
:100A5000608D20855D48E062CDE9007553465A46B9
:100A60002046049901F0F6F800287CD1208DD0B101
:100A7000012821D00228206824D041698069009093
:100A8000208D032869D801282BD0514902283B46E4
:100A90004FF00002009559D08846204601F0E6FA52
:100AA000002860D13CE020684169816900910168BB
:100AB00041F40071016077E02068016821F48061F1
:100AC0000160F0E7016821F480610160206801683D
:100AD00041F400610160206841698069009063E031
:100AE0006FE02A463946204601F03FFB98BB20685C
:100AF0000069616A08704EE02068016841F4007185
:100B0000016020680069616A0870606A401C606268
:100B1000218D491E2185618D491E6185216838E03E
:100B20002068016821F48061016020680069616AC1
:100B30000870606A401C6062208D401E2085608DB8
:100B4000401E60853B46002241460095204601F04C
:100B50008DFA00B9D0E706E0FFE72A46394620467D
:100B600001F003FB18B1012007B0BDE8F08F206849
:100B70000069616A0870606A401C6062218D491ECC
:100B80002185618D491E618521684A69D2435207DA
:100B90000AD409690170606A401C6062208D401EA1
:100BA0002085608D401E6085208D00287FF468AF11
:100BB000202084F83D0084F83E6084F83C600020EA
:100BC000D2E70220D0E70000020010000000FFFF83
:100BD000040001002DE9FF4F83B09A46DDE911972B
:100BE00093460446DDF84080FFF7B0FC054694F8D4
:100BF0003D0020287FD1192301224049204600953D
:100C000001F034FA002876D194F83C00012872D023
:100C1000012084F83C0020680168C90703D10168FD
:100C200041F0010101602068016821F40061016068
:100C3000212084F83D00402084F83E0000262664F0
:100C4000C4F82480A4F82A90608D20852C48E062A6
:100C5000CDE9007553465A462046049901F078F8CC
:100C600070B930E02A463946204601F0B1FA58B151
:100C7000206C042804D12068016841F400710160EF
:100C8000012007B0BDE8F08F606A21680078086134
:100C9000606A401C6062218D491E89B22185628D87
:100CA000521E628522685369DB435B070BD469B12E
:100CB00000781061606A401C6062208D401E2085B3
:100CC000608D401E6085208D0028CBD12A46394694
:100CD000204601F0A5F90028CAD154F83D0B01685F
:100CE00041F400710160202004F81E09E677667760
:100CF0000020C6E7FFE70220C3E700000200100063
:100D00000000FFFF10B586B0044614216846FFF7C7
:100D1000ADFA1C492068884231D11B48016841F076
:100D2000020101600068694600F0020005904FF47E
:100D3000C0700090122001900120029003200390C7
:100D4000042004901148FFF70DFB0F481030016894
:100D500041F4001101600068002200F400100590C9
:100D600011461F2000F07EF81F2000F06DF80022D1
:100D70001146202000F076F8202000F065F806B03B
:100D800010BD000000540040303802400004024012
:100D9000704770470248816802781144816070474B
:100DA000080000200B4810B5016841F40071016093
:100DB000016841F480610160016841F48071016063
:100DC000032000F06FF8002000F006F800F024F88F
:100DD000002010BD003C024070B50D4D04464FF49C
:100DE0007A712878B1FBF0F00A490968B1FBF0F09C
:100DF00000F050FB48B9102C07D200222146501EAB
:100E000000F030F800206C6070BD012070BD000063
:100E100008000020140000200A4808B5016841F4C9
:100E200080410160006800F4804000900548001F88
:100E3000016841F080510160006800F0805000902E
:100E400008BD000044380240002809DB00F01F0202
:100E5000012191404009800000F1E020C0F800111C
:100E600070470000F0B40E4B1B680C46C3F302231E
:100E7000C3F10705042D00D90425191D072901D246
:100E8000002300E0DB1E012606FA05F1491E214081
:100E900099409E40761E16403143F0BC01F0A1BA45
:100EA0000CED00E0064900F0070208684FF6FF036A
:100EB000184040EA0220034A1043086070470000CF
:100EC0000CED00E00000FA052DE9F8431748016831
:100ED00041F0805101600068154F00F080500126FC
:100EE00000903E64FFF732FB05464FF47A78114CD0
:100EF00005E000BFFFF72AFB401B40450DD86068A6
:100F0000C003F7D57E64FFF721FB0546464607E0A0
:100F1000FFF71CFB401BB04202D90320BDE8F88359
:100F200060688003F4D50020F8E7000040380240F4
:100F300000000E42007000402DE9F0470E4605000B
:100F400065D0DFF81481D8F80000F7B200F00F0088
:100F5000B04207D288F80070D8F8000000F00F0007
:100F6000B04254D128683D4C810712D5400703D5C3
:100F7000206840F4E05020602878000703D52068FE
:100F800040F4604020602068A96820F0F000084329
:100F900020602878C0072DD03049686808390128BA
:100FA00012D0022813D0032811D00968890700291C
:100FB0002DDA216821F0030101432160FFF7C6FA11
:100FC000814641F2883A0EE009688903EFE7096833
:100FD0008901ECE7FFF7BAFAA0EB0901514502D904
:100FE0000320BDE8F0872068696800F00C00B0EBD2
:100FF000810FEFD1D8F80010404601F00F01B14247
:1010000007D90770006800F00F00B04201D001203E
:10101000E7E72878400705D52068E96820F4E05024
:10102000084320602878000706D52068296920F445
:10103000604040EAC100206000F028F82168084ABA
:10104000C1F30311515CC8400649086006480068B6
:10105000FFF7C2FE0020C4E7003C0240083802400F
:101060001C270008140000200C000020044805493B
:1010700000680968044AC1F38221515CC840704786
:1010800014000020083802402C270008194810B529
:10109000006810F00C01184818D0042916D0154C1F
:1010A000241F082913D00C2910D1216801F03F0218
:1010B000216821680023C1F38811A1FB0001FFF71B
:1010C0009DF82168C1F30271B0FBF1F010BD2168F9
:1010D00001F03F02216821680023C1F38811A1FBC0
:1010E0000001FFF78BF82168C1F30141491C490059
:1010F000EAE70000083802400024F4002DE9F84F28
:1011000004007DD0DFF878B32078ABF10407C00786
:10111000A7F1040550D0DBF800105846C1F3810157
:1011200001290FD00168C1F38101022902D1396878
:10113000490207D40068C0F38100032809D1386848
:10114000400206D52868800336D560680028D8D0CC
:1011500032E06068B0F5803F10D0B0F5A02F28686D
:1011600010D020F480302860286820F48020286087
:101170006068A0B1FFF7EAF906460CE0286840F481
:101180008030F4E740F480202860F7E7FFF7DEF9CD
:10119000801B642876D828688003F7D50CE0FFF719
:1011A000D5F9064605E000BFFFF7D0F9801B64289B
:1011B000F0D828688003F7D42078DFF8C892800739
:1011C0004FF0000A44D5DBF80010584611F00C0F20
:1011D0000FD00168C1F38101022902D139684902A7
:1011E00007D50068C0F3810003280AD1386840029F
:1011F00007D42868800715D5E068012800D111E0E0
:101200003AE1E068B0B10120C9F80000FFF79EF9AB
:10121000064604E0FFF79AF9801B0228BAD828682E
:101220008007F7D52868216920F0F80040EAC1005E
:1012300028600DE0C9F800A0FFF788F9064604E031
:10124000FFF784F9801B02281CD828688007F7D490
:101250002078000727D5DFF828828B48616908F1DC
:101260006C0881B101210160FFF770F9064604E0C6
:10127000FFF76CF9801B022804D8D8F8000080071B
:10128000F6D510E089E0C0F800A0FFF75FF9064648
:1012900005E000BFFFF75AF9801B02287DD8D8F877
:1012A00000008007F6D42078400769D574484FF0D5
:1012B000000838300068C0000BD47148383001682D
:1012C00041F08051016000684FF0010800F080504B
:1012D00000906E4E3068C00511D4306840F48070C4
:1012E0003060FFF733F9009006E000BFFFF72EF9FA
:1012F0000099401A022850D83068C005F6D5604ED3
:10130000A068683601280FD00528306810D020F07A
:1013100001003060306820F004003060A068B8B18F
:10132000FFF714F900900FE0306840F00100F4E797
:1013300040F004003060F7E7FFF708F90099411A20
:1013400041F28830814264D830688007F4D50EE0DD
:10135000FFF7FCF8009007E0FFF7F8F80099411A52
:1013600041F28830814254D830688007F4D4B8F113
:10137000000F05D042483830016821F080510160EB
:10138000A069A8B3DBF80010C1F38101022947D09E
:101390000228C9F860A005D000E03AE0FFF7D6F8CF
:1013A000044639E0FFF7D2F8064604E0FFF7CEF82E
:1013B000801B02282DD828688001F7D4F4E90701A2
:1013C0000843E168324A490802EB0141A26841EA58
:1013D00082110843217C40EA0160217D40EA0170CE
:1013E00038600120C9F86000FFF7B0F8044606E055
:1013F00044E000BFFFF7AAF8001B022809D82868BC
:101400008001F7D53AE000BFFFF7A0F8001B0228E3
:1014100002D90320BDE8F88F28688001F4D42DE0BC
:101420000128F7D03868E26900F48001914223D1A5
:10143000226A00F03F0191421ED147F6C071626AF4
:101440000140B1EB821F17D1A26A4FF0FF3300F4C5
:10145000403103EB5202B1EB024F0DD194F82C2036
:1014600000F07061B1EB026F06D194F8301000F01B
:10147000E040B0EB017F01D00120CBE70020C9E7BD
:101480000838024000004742800E4742007000408A
:101490000000FFFF10B5401EB0F1807F01D3012096
:1014A00010BD4FF0E02460610F21601700F099FF3C
:1014B0000020A06107202061002010BDFEE7000091
:1014C0000148FFF74BB80000240000200148FFF757
:1014D000A2B800002400002038B5806B002190F8ED
:1014E0003D202B4B46F2A8141B68B3FBF4F3C3EB6F
:1014F000C30303EB830300933BB15B1E00930368BC
:101500001B689B0505D5009BF6E7036C43F02003A1
:101510000364436B03B1D963836B03B1D96303687D
:101520001C6824F480641C604185436B03B1196519
:10153000836B03B1196503681C6824F001041C6007
:1015400090F83D402023602C0BD0282434EA02027E
:101550000FD080F83D3080F83E1000BFFFF773F9E0
:1015600038BD80F83D3080F83E100164FEF7F4FF8E
:1015700038BD0268136843F0010313600268136802
:1015800043F480631360016380F83D40E6E70000A8
:101590001400002070B5044690F83D0094F83E1009
:1015A000102901D0402906D1222804D121680A68D7
:1015B00022F400620A60282131EA00024FF000059F
:1015C0004FF0200626D021684968090505D4602817
:1015D00003D084F83D6084F83E502563206841685C
:1015E000090537D5416821F400614160606B90F8CE
:1015F00035203C49012A11D00165606BFEF77CFE65
:1016000038B32068016821F00101016084F83D6071
:10161000606B1CE0256384F83D10DFE7A06B01657B
:10162000A06BFEF769FEA0B120684169C943490675
:1016300005D40069616A0870606A401C60622068B5
:10164000016821F00101016084F83D60A06B016D2B
:10165000884710E094F83D10602910D04169C943D3
:10166000490605D40069616A0870606A401C6062BE
:101670002046FFF7E8F8206CC1071CD115E084F87C
:101680003D6025644169C943490605D40069616A22
:101690000870606A401C60622068016821F00101E6
:1016A00001602046FEF758FFE5E7810703D44107B4
:1016B00001D4000704D52068416821F4E06141604D
:1016C00094F83D00216C49070BD5282809D106481C
:1016D000E062256384F83D6084F83E502046FFF7C1
:1016E00077F970BDD91400080000FFFF01684A694E
:1016F000D24352050FD46FF480624A61002140F852
:10170000301F202242738173026942F00402026199
:101710000173012070470020704710B5C26A438DE5
:101720000168042B06D0438D032B08D0438D022B78
:101730001DD012E04A6822F480624A600CE04B68D7
:1017400023F480634B60042A06D0022A04D0016887
:101750000A6822F480620A6001680969426A1170AD
:10176000416A491C4162418D491E418510BD012AD3
:1017700030D0102A2ED0042A30D0022A2ED00A6867
:1017800042F400720A6001680969426A1170416A94
:10179000491C4162428D521E4285026812690A70DC
:1017A000416A491C4162418D491E418501684A6870
:1017B00022F440724A60202180F83D1090F83E20CB
:1017C0000021402A80F83E100CD012210163FFF75F
:1017D00000F910BD0A6822F48062D3E70A6842F477
:1017E0008062CFE70163FFF7F6F810BD38B590F8D7
:1017F0003D10222914D1418D032912D901680969AC
:10180000426A1170416A491C4162418D491E4185FD
:10181000418D032904D10068416821F48061416051
:1018200038BDC26A022AFBD0012901D00029F7D1B4
:10183000274946F2A81300220968B1FBF3F101EB36
:101840008101009101682023009C641E009422D035
:101850000C68A405F8D40C6824F480640C6001685A
:101860004C6824F4E0644C6001680969446A2170A2
:10187000416A491C4162418D491E418580F83D30D5
:1018800090F83E1080F83E2040291DD012210163BF
:10189000FFF79FF838BD046C44F0200404644C68E2
:1018A00024F4E0644C6001680969446A2170416A6B
:1018B000491C4162418D491E418580F83D3080F8C8
:1018C0003E20FEF7C0FF38BD0263FFF784F838BD45
:1018D0001400002010B5C26A90F83D1021290BD1E8
:1018E000418D51B1416A026809781161416A491C10
:1018F0004162418D491E418510BD20230021082AE7
:1019000013D0202A11D012F5803F0ED002685468FF
:1019100024F4E06454601122026380F83E1080F8E1
:101920003D3000BFFFF756F810BD0268546824F43C
:10193000E06454600268146844F400741460016345
:1019400080F83D3090F83E2080F83E10402AE9D1E2
:10195000FFF742F810BD000010B590F83D1090F868
:101960003E30C26A048DB4B1212903D0402B11D17D
:1019700022290FD1418DE1B390F83E10402942D089
:10198000416A026809781161416A491C4162418DCE
:10199000491E418510BD2129E8D120230021082AB4
:1019A00013D0202A11D012F5803F0ED0026854685F
:1019B00024F4E06454601122026380F83E1080F841
:1019C0003D3000BFFFF706F810BD0268546824F4EC
:1019D000E06454600268146844F4007414600163A5
:1019E00080F83D3090F83E2080F83E10402AE9D142
:1019F00000E002E0FEF7F0FF10BD0068416821F44E
:101A00008061416010BDBDE8104000F0D3B8000017
:101A100078B590F83E50C26A036B90F83D600024A0
:101A20000168222E7AD1066D0EB9402D76D0056D53
:101A30001DB90569B5F5404F09D0458D05B3468DF3
:101A4000384D012E0ED0438D022B3AD05DE04A690D
:101A50008A6900920A6842F480720A60016D491C2A
:101A6000016578BDAA4213D10A6822F480620A6037
:101A700001684A68120503D50A6822F4806216E0FC
:101A80004A698A6900920A6842F400720A6039E081
:101A9000082A10D0202A0ED0122B0AD0042A03D0F4
:101AA000022A01D0102AE7D10A6842F480620A6053
:101AB00024E0012AE0D00A6822F480620A6001680A
:101AC000DEE7042A21D0022A1FD0102A1DD00B687D
:101AD00023F480630B6001680B6843F400630B60C0
:101AE00001684B681B0509D5AA4212D0012A10D003
:101AF000082A0ED0102A0CD0202A0AD001684A6980
:101B000089690091046578BD08E00B6843F480633F
:101B1000E5E74A6842F480524A60EFE7486988691D
:101B20000090F0E70000FFFF90F83E10402910D031
:101B30000169B1F5804F19D0016DA9B3016D01297B
:101B400010D1416C5FF0F10201F4407142EAD11111
:101B500006E0016D0029416C05D0C9B241F00101D8
:101B600000680161704701F0FE01F9E790F83D104F
:101B70002129416C09D0C9B241F00101026811610B
:101B8000416B29B1C96B49B902E001F0FE01F5E7EB
:101B9000816B0029E6D0C96B0029E3D00068416859
:101BA00041F4006141607047FFE7416CF02201F4AD
:101BB0004071CBE710B590F83D10026D22B3026D75
:101BC000012A2FD0026D022A1DD122292FD0428D49
:101BD0000AB1212933D0428D002A14D1212912D1F2
:101BE00001684A6822F4E0624A6001680A6842F4C7
:101BF00000720A6000210163202280F83D2080F8F5
:101C00003E10FEF7E9FE10BDC16C0129816C02D0C7
:101C1000C1F3072108E00268C9B21161016D891C96
:101C2000016510BD816CC9B20268116104E00168F0
:101C30000A6842F480720A60016D491CF0E7416A4B
:101C4000026809781161416A491C4162418D491E4F
:101C5000418510BD2DE9F84F0446006889460B9D6B
:101C600001689846174641F4806101602068016868
:101C700041F48071016000954FF0011B002259462C
:101C800020460A9B00F0F2F94FF4007A40B1206838
:101C90000068C00501D5C4F840A00320BDE8F88F56
:101CA000216809F0FE0008612B46284920460A9A5F
:101CB00000F010FAF0BB20684169806900902A4664
:101CC00020460A9900F084FA40B1206C04283AD1E9
:101CD0002068016841F40071016034E0FEB2B8F19F
:101CE000010F09D02168380A08612A4620460A995E
:101CF00000F06EFA0028E8D1206806612A462046E6
:101D00000A9900F065FA0028DFD12068016841F4E3
:101D10008071016000950022594620460A9B00F020
:101D2000A5F90028B3D1216809F0FF0040F00100B7
:101D3000086100E007E02B46044920460A9A00F0BB
:101D4000C9F90028AAD00120A8E70000020001007C
:101D50002DE9F843044600680D46DDE9089701685F
:101D60009846164641F4807101604B4600224FF0C0
:101D700001112046009700F079F948B12068006809
:101D8000C00502D54FF4007020640320BDE8F8833D
:101D9000216805F0FE0008613B464A461549204689
:101DA00000F098F988B920684169806900903A4646
:101DB0004946204600F00CFA48B1206C042804D1B2
:101DC0002068016841F4007101600120DEE7F5B28E
:101DD000B8F1010F09D02168300A08613A46494636
:101DE000204600F0F5F90028E7D1206805610020C1
:101DF000CCE700000200010038B50C4690F83D2009
:101E000000212825954302680B4605D05169916948
:101E1000009180F83C3038BD556825F480655560E8
:101E2000E243540700D50121120601D5828900E062
:101E3000028B80F83C3092B2FEF78FFB38BD000079
:101E40002DE9F04190F83D40C26A002320261C4F46
:101E500001686FF48065082A01D0202A01D1282C5E
:101E600004D0212C16D04D61BDE8F081C7624A68CC
:101E700022F4E0624A6001684D6101680A6822F458
:101E800080620A60036380F83D6080F83E30FEF7B0
:101E90009FFDE9E7C7622122026380F83D6080F878
:101EA0003E304A6822F4E0624A6001684D61016890
:101EB0000A6822F480620A60FEF76BFFD4E7000034
:101EC0000000FFFFF8B590F83D60044600684168E7
:101ED00021F4E061416020680025416900910168BA
:101EE00041F0010101602068016821F48061016016
:101EF00020684168090520D5474F222E48D02A2E58
:101F000046D0616B096849686185618D19B1216CA2
:101F100041F004012164416821F400614160606B7B
:101F2000FEF7FCF9012808D0606B0765606BFEF7CF
:101F3000E3F910B1606B016D8847608D08B32068CC
:101F40004169C943490708D40069616A0870606A39
:101F5000401C6062608D401E608520684169C943F5
:101F6000490608D40069616A0870606A401C6062B2
:101F7000608D401E6085608D18B1206C40F00400BB
:101F80002064206C00B32046BDE8F840FFF702BB98
:101F9000A16B096849686185618D19B1216C41F0B7
:101FA00004012164416821F400614160A06BFEF7E7
:101FB000B5F90128C1D0A06B0765A06BFEF79CF9AD
:101FC0000028BAD0A06BB6E72A2E06D125632820B8
:101FD00084F83D002046FEF7DBFE94F83D102020FB
:101FE00028290DD0216B222901D0222E07D125636B
:101FF00084F83D0084F83E502046FEF7C9FEF8BD47
:102000000649E162256384F83D0084F83E5020468D
:10201000FEF7DEFCF8BD0000D91400080000FFFF49
:1020200070B516460D4604460DE02046FFF75EFBF0
:1020300008B1012070BD681C05D0FEF787FA801B2F
:10204000A84207D835B120684069C0434007ECD4A6
:10205000002070BD002044F8300F20216173A07370
:10206000216941F0200121612073E2E72DE9F04769
:102070001E4690460D460446C1F30747DDF8209002
:1020800008E0701C06D0FEF761FAA0EB0900B04230
:102090000FD876B12068012F18D0806925EA00009A
:1020A0000004000C14D000214145EAD00020BDE816
:1020B000F087002044F8300F20216173A07321695C
:1020C00041F02001216120730120F0E74069E5E73C
:1020D0000121E9E72DE9F0479A4691460E4604466C
:1020E00000254FF02008C1F3074725E0206840692C
:1020F000C043400514D42068016841F400710160B8
:1021000021686FF480604861256384F83D8084F81D
:102110003E50206C40F00400206484F83C501FE0E6
:10212000B9F1FF3F08D0FEF711FAA0EB0A014945CB
:102130000CD8B9F1000F09D02068012F13D08069A5
:1021400026EA00000004000C0BD0CFE744F8305F13
:1021500084F80D80A573206940F02000206125736C
:102160000120BDE8F0874069EAE72DE9F04100254C
:1021700090460E460446202717E04069C043C0063B
:102180000CD454F8301B6FF01000486144F810591B
:102190006777A577206A2062257717E0FEF7D6F9E2
:1021A000A0EB0800B04208D83EB120684169C9439D
:1021B0004906E2D40020BDE8F08144F8305F67733F
:1021C000A573206940F02000206125730120F2E70B
:1021D00070B516460D4604460DE02046FFF786FA18
:1021E00008B1012070BD681C05D0FEF7AFF9801B57
:1021F000A84207D835B120684069C0430006ECD436
:10220000002070BD002044F8300F20216173A073BE
:10221000216941F0200121612073E2E770B586B0A9
:1022200014216846FEF722F82B480024016841F08B
:1022300080010160016801F080010591016841F0B1
:1022400008010160016801F008010591016841F091
:1022500001010160016801F001010591016841F08F
:1022600002010160016801F002010591016841F07D
:10227000100101600068194E00F010004FF4704525
:102280000590002229463046FEF75AF901200095B4
:10229000CDE90104694630460394FEF763F8032054
:1022A00000904FF48810CDE9010469460C48FEF710
:1022B00059F8002211460620FEF7D4FD0620FEF74D
:1022C000C3FD002211460720FEF7CCFD0720FEF7D4
:1022D000BBFD06B070BD000030380240000C02406B
:1022E000001002400D4810B50B4901600C494160D7
:1022F00000214FF480428160C0E903124161816195
:10230000C1610162FEF7A0FA002803D0BDE81040C9
:10231000FDF7F0BF10BD0000005400402400002075
:10232000A0860100FEE7FEE770477047FEF732BD6A
:1023300030B593B034216846FDF798FF14210DA8FD
:10234000FDF794FF20480025016841F080510160AD
:10235000006800F0805012901C48016841F4404130
:1023600001600068022400F44040129001200090B7
:10237000000401908001CDE9064008200890B420B7
:10238000CDE909040B9468460C94FEF7B7FE08B13A
:1023900072B6FEE7FEF798FD08B172B6FEE70DA92A
:1023A0000F2081E831004FF4A05010904FF480507E
:1023B000119005210DA8FEF7BFFD002801D072B6CF
:1023C000FEE713B030BD000040380240007000400E
:1023D0000248016841F470010160704788ED00E037
:1023E000FEE70907090E002804DB00F1E02080F871
:1023F0000014704700F00F0000F1E02080F8141D79
:10240000704702E008C8121F08C1002AFAD17047BD
:102410007047002001E001C1121F002AFBD1704764
:102420001CB50C4606236A46282100F0B4F89DF836
:10243000011021809DF8002002EB012121809DF8F0
:10244000031061809DF8022002EB012161809DF85C
:102450000510A1809DF8042002EB0121A1801CBD84
:1024600038B50C46054601236A46232100F093F84F
:1024700000280BD19DF80000012364F3C7108DF8EC
:1024800000006A462321284600F0A3F838BD38B57D
:102490000C46054601236A46202100F07CF80028FE
:1024A0000BD19DF80000012364F307108DF80000A4
:1024B0006A462021284600F08CF838BD01230A46E0
:1024C0000F2100F068B8000000EE100ADFED030AEB
:1024D000B8EEC00A20EE200A704700000000803DE0
:1024E00038B50C46054601236A46232100F053F80F
:1024F00000280BD19DF80000012364F305108DF82E
:1025000000006A462321284600F063F838BD7CB5F8
:102510000C46054601236A46202100F03CF80028BD
:102520002DD1012301AA2321284600F034F80028E8
:1025300025D124B1012C0DD0022C21D011E09DF821
:10254000000020F008008DF800009DF8040040F025
:10255000080004E09DF8000020F0080014E08DF869
:10256000040001236A462021284600F032F80028A2
:1025700005D1012301AA2321284600F02AF87CBDB9
:102580009DF8000040F008008DF800009DF8040060
:1025900020F00800E3E730B4D0E901542046AC460F
:1025A00030BC604738B50C46054601236A461F21FA
:1025B000FFF7F1FF00280BD19DF80000012364F321
:1025C00087108DF800006A461F21284600F001F8A8
:1025D00038BD30B4846805682046AC4630BC6047DE
:1025E00038B50C4601236A462721FFF7D4FF9DF832
:1025F0000010C1F3C001217038BD00001FB5FEF707
:10260000D1FBFFF795FEFFF709FEFFF76BFE2F48A2
:1026100000902F4801902F4802900520FDF782FE80
:102620002D496846FFF74AFF2B4C2C4F641E6078FB
:10263000332809D001254FF4405625700122314638
:102640003846FDF77DFFF8E701216846FFF708FFF0
:1026500001216846FFF71BFF00216846FFF740FF96
:1026600003216846FFF79EFF00216846FFF74FFFF2
:1026700003A96846FFF7B4FF9DF80C000028F7D0C7
:1026800001224FF470413846FDF75AFF0020C4F88C
:1026900002001149E080491C6846FFF7C1FE0E4D5B
:1026A0006D1CB5F90000FFF70FFF0D4E86ED000A17
:1026B000B5F90200FFF708FF86ED010AB5F904003D
:1026C000FFF702FF86ED020AD2E7000001270008AB
:1026D000E52600082400002001000020000C024034
:1026E000180000203EB54FF47A748DE81C0041F0CC
:1026F00080010A4601233121FEF770F900203EBD1A
:102700003EB54FF47A748DE81C0041F080010A4612
:1027100001233121FEF75EFA00203EBD00000000DB
:102720000000000001020304060708090000000081
:1027300001020304542700080000002018000000D4
:10274000022400086C270008180000206004000024
:10275000122400080000000000000000010000003A
:0C27600010000000000000000024F40045
:04000005080001C529
:00000001FF
